:10000000000C060006040605350906043509060538
:1000100035090604350906053509060435090605BE
:100020003509350935090604350906053509350947
:100030003509060435090605350935093509350937
:10004000060435090605350906043509060535098E
:10005000060435090605350906043509350935094B
:100060003509350935093509030A550C30008A0C64
:100070003100030C3200F0023B0AF1023B0AF202AB
:080080003B0A0000000000082B
:021FFE000800D9
:00000001FF
